{
  "_format": "hh-sol-artifact-1",
  "contractName": "PlonkVerifier",
  "sourceName": "contracts/plonk/PlonkVerifier.sol",
  "abi": [
    {
      "inputs": [
        {
          "internalType": "uint256[24]",
          "name": "_proof",
          "type": "uint256[24]"
        },
        {
          "internalType": "uint256[4]",
          "name": "_pubSignals",
          "type": "uint256[4]"
        }
      ],
      "name": "verifyProof",
      "outputs": [
        {
          "internalType": "bool",
          "name": "",
          "type": "bool"
        }
      ],
      "stateMutability": "view",
      "type": "function"
    }
  ],
  "bytecode": "0x6080604052348015600f57600080fd5b506117448061001f6000396000f3fe608060405234801561001057600080fd5b506004361061002b5760003560e01c80636183f6b414610030575b600080fd5b61004361003e366004611669565b610057565b604051901515815260200160405180910390f35b60006115fa565b600080600184846000805b821561008b575092938183058581029091039350909181830290039081610069565b505050600181111561009c57600080fd5b505060008112156100aa5783015b9392505050565b60405181602084028301815160208301925060005b828410156100f7578185526000805160206116ef8339815191528451830991506020850194506020840193506100c6565b61010f6000805160206116ef8339815191528361005e565b91506020850394506020840393508592505b82841115610166576000805160206116ef8339815191528551830990506000805160206116ef83398151915284518309818552601f1995860195909401939150610121565b5090915250505050565b6000805160206116ef833981519152811061018f576000805260206000f35b50565b61019e61024435610170565b6101aa61026435610170565b6101b661028435610170565b6101c26102a435610170565b6101ce6102c435610170565b6101da6102e435610170565b565b604080517f29f190406f08ad5118f1ec1069911a222de09391e82fd5d45f9d276c5de92c5881527f08587aa0803ac8df43e492babd290ef06dd3169370c1cbb727b8c825f69073ed60208083019182527f1f0e7c40680220adb32133f83ae29ed3a8e2ee6777c37c0a70560572392c36f48385019081527f2bbe0893bcadbc37e2d8f2f27a85930036e4a383318bbfac2801894c0188b09260608086019182527f1102daa2dde31758b619865717de5f2ffdf063570d129896cfd8fc6c2f1f09bd6080808801919091527f2fe5c19b688bb6f7d9aaa30a04f8d0c0f2a0593409084af8eb05a6e2f4ef773560a08801527f0fda7b92065b9c7d7eacad8575ce2fc66050c586dd83c5f5a73dfb0f7c6345be60c08801527f18afd86e3ff0a617bf5f4cd3d241e0daeee2b88b7b1b476b6fdfa6d75d9629a660e08801527f0ad80d36801493c07e7d3e237dbae74da477272253865843b3fa383c663c8ac76101008801527f0d939b84c52d84c8c422e918058ebd6b686d3c542d798b19ddce6468d37b0beb6101208801527f2b525775bf1ca8e1252f1f8e905ea97731df2c6ecee539360acfe9e8be86f42d6101408801527f29190b28c45e0470cadf896050b7d71f62e02121dd3bae2e190e944130f854526101608801527f2373db7934396cdfd8e2773b194c786a9cdba9816dd6fcb9afca728ddcdace0e6101808801527f027f520c46fafd434e8641fb3f3c56c9673ae995359681db00d65e27389f9db36101a08801527f2d52dd5100a875f0e0f1ac3dd13c7bcee068ccdea516d3342ae1eb591805333b6101c08801527f2ea87f711e28d88cc896de29678198b8c3015708f751f0fce8def99fc4d37d6f6101e088015289356102008801528985013561022088015289880135610240880152908901356102608701526004356102808701526024356102a08701526044356102c08701526064356102e087015260843561030087015260a43561032087015261034086206000805160206116ef8339815191529081900689860181815295909520819006978901978852848752965190945260c43590915260e435905290822083900680855290929091908280096102c08501528181526101043560208201526020610104013560408201526101443560608201526020610144013560808201526101843560a08201526020610184013560c08201526000805160206116ef83398151915260e082200691508160608501528181526102443560208201526102643560408201526102843560608201526102a43560808201526102c43560a08201526102e43560c08201526000805160206116ef83398151915260e08220068060c08601526000805160206116ef83398151915283850960a08601526000805160206116ef83398151915283840992506000805160206116ef83398151915283840992506000805160206116ef83398151915283840992506000805160206116ef83398151915283840992506000805160206116ef83398151915283840992506000805160206116ef83398151915283840992506000805160206116ef83398151915283840992506000805160206116ef83398151915283840992506000805160206116ef83398151915283840992506000805160206116ef83398151915283840992508260808601526000805160206116ef833981519152806001850301069250826102e0860152826103008601526000805160206116ef83398151915281820992508260e08601526000805160206116ef8339815191528184099250826101008601526000805160206116ef8339815191528184099250826101208601526000805160206116ef833981519152818409610140860152506101c43581526101e4356020820152610204356040820152610224356060820152608090206000805160206116ef833981519152900661016090930192909252505050565b60016000805160206116ef833981519152806000805160206116ef833981519152836060860151030106610400096103208301526000805160206116ef8339815191526000805160206116cf833981519152820990506000805160206116ef833981519152806000805160206116ef833981519152836060860151030106610400096103408301526000805160206116ef8339815191526000805160206116cf833981519152820990506000805160206116ef833981519152806000805160206116ef833981519152836060860151030106610400096103608301526000805160206116ef8339815191526000805160206116cf833981519152820990506000805160206116ef833981519152806000805160206116ef833981519152836060860151030106610400096103808301526108aa600561030084016100b1565b6102e0820151600191506000805160206116ef83398151915281610320850151096103208401526000805160206116ef8339815191526000805160206116cf833981519152830991506000805160206116ef83398151915280826103408601510983096103408401526000805160206116ef8339815191526000805160206116cf833981519152830991506000805160206116ef83398151915280826103608601510983096103608401526000805160206116ef8339815191526000805160206116cf833981519152830991506000805160206116ef8339815191528082610380860151098309610380840152505050565b60006000805160206116ef833981519152806000805160206116ef8339815191526000860135610320860151098303010690506000805160206116ef833981519152806000805160206116ef8339815191526020860135610340860151098303010690506000805160206116ef833981519152806000805160206116ef8339815191526040860135610360860151098303010690506000805160206116ef833981519152806000805160206116ef83398151915260608601356103808601510983030106905080610180830152505050565b6101808101516000805160206116ef8339815191526102c0830151610320840151096000805160206116ef833981519152806102a43560208601510961024435086000805160206116ef8339815191526040850151820890506000805160206116ef833981519152806102c43560208701510961026435086000805160206116ef8339815191526040860151820890506000805160206116ef833981519152604086015161028435086000805160206116ef833981519152816000805160206116ef83398151915284860909925050506000805160206116ef8339815191526102e435820990506000805160206116ef8339815191526000850151820990506000805160206116ef83398151915280836000805160206116ef8339815191520306840892506000805160206116ef83398151915280826000805160206116ef8339815191520306840892505050806101a08301525050565b6040518151815260208201516020820152825160408201526020830151606082015260408260808360066107d05a03fa905080610c07576000805260206000f35b505050565b50505050565b600060405183815284602082015285604082015260408160608360076107d05a03fa915081610c45576000805260206000f35b825160408201526020830151606082015260408360808360066107d05a03fa91505080610c76576000805260206000f35b5050505050565b600060405183815284602082015285604082015260408360608360076107d05a03fa91505080610c76576000805260206000f35b610c07836020840151845184610c7d565b6101c0810160408201516040516101008101604052610d267f0d939b84c52d84c8c422e918058ebd6b686d3c542d798b19ddce6468d37b0beb7f0ad80d36801493c07e7d3e237dbae74da477272253865843b3fa383c663c8ac78590815260200152565b610d896000805160206116ef8339815191526102643561024435097f08587aa0803ac8df43e492babd290ef06dd3169370c1cbb727b8c825f69073ed7f29f190406f08ad5118f1ec1069911a222de09391e82fd5d45f9d276c5de92c5886610c12565b610dd8610244357f2bbe0893bcadbc37e2d8f2f27a85930036e4a383318bbfac2801894c0188b0927f1f0e7c40680220adb32133f83ae29ed3a8e2ee6777c37c0a70560572392c36f486610c12565b610e27610264357f2fe5c19b688bb6f7d9aaa30a04f8d0c0f2a0593409084af8eb05a6e2f4ef77357f1102daa2dde31758b619865717de5f2ffdf063570d129896cfd8fc6c2f1f09bd86610c12565b610e76610284357f18afd86e3ff0a617bf5f4cd3d241e0daeee2b88b7b1b476b6fdfa6d75d9629a67f0fda7b92065b9c7d7eacad8575ce2fc66050c586dd83c5f5a73dfb0f7c6345be86610c12565b60a08401516000805160206116ef833981519152836000805160206116ef833981519152836102443508086000805160206116ef833981519152846000805160206116ef83398151915280600286096102643508086000805160206116ef833981519152856000805160206116ef833981519152806003870961028435080892506000805160206116ef83398151915260008801516000805160206116ef833981519152856000805160206116ef83398151915285870909096000805160206116ef8339815191526102c08901516103208a01510960c43560c087015260e43560e0870152610f906000805160206116ef8339815191526101608b01516000805160206116ef8339815191528486080860c0880188610cb1565b50506000805160206116ef833981519152856000805160206116ef833981519152806102a43560208c01510961024435080891506000805160206116ef833981519152856000805160206116ef833981519152806102c43560208c01510961026435080890506000805160206116ef8339815191526102e4356000805160206116ef83398151915260208a015160008b0151090992506110976000805160206116ef833981519152846000805160206116ef833981519152848609097f2ea87f711e28d88cc896de29678198b8c3015708f751f0fce8def99fc4d37d6f7f2d52dd5100a875f0e0f1ac3dd13c7bcee068ccdea516d3342ae1eb591805333b60408801610c7d565b5050506101043560808201526101243560a08201526110c86080850151602061014401356101443560808501610c12565b60808401516000805160206116ef83398151915290800991506110f6826101a4356101843560808501610c12565b6111126102e085015160a0830151608084015160808501610c7d565b6000805160206116af83398151915260206040830101516000805160206116af833981519152030660206040830101526000805160206116af83398151915260a08201516000805160206116af833981519152030660a08201526111768184610bc6565b6111836040820184610bc6565b610c0c6080820184610bc6565b6101c081015161020082019081526101e082015161022083015260c08201516111bf9060243560043584610c12565b60e08201516111d49060643560443584610c12565b6101008201516111ea9060a43560843584610c12565b61123b6101208301517f29190b28c45e0470cadf896050b7d71f62e02121dd3bae2e190e944130f854527f2b525775bf1ca8e1252f1f8e905ea97731df2c6ecee539360acfe9e8be86f42d84610c12565b61128c6101408301517f027f520c46fafd434e8641fb3f3c56c9673ae995359681db00d65e27389f9db37f2373db7934396cdfd8e2773b194c786a9cdba9816dd6fcb9afca728ddcdace0e84610c12565b5050565b6000805160206116ef8339815191526101a08201516000805160206116ef83398151915203066000805160206116ef8339815191528060c08401516102443509820890506000805160206116ef8339815191528060e08401516102643509820890506000805160206116ef833981519152806101008401516102843509820890506000805160206116ef833981519152806101208401516102a43509820890506000805160206116ef833981519152806101408401516102c43509820890506000805160206116ef833981519152806101608401516102e435098208905061128c81600260016102408601610c7d565b6000604051610240810160405261018081016101c0820161020083016113b26101c48481358152602091820135910152565b6102043582526102243560208301526113d16101608701518386610cb1565b6113db8385610bc6565b6000805160206116af83398151915260208501516000805160206116af833981519152030660208501527f171009486cacab7d02de03b64028f3a725c9925a08473c551c3111936b12e75b60408501527e1f7dd910bbbc6582fc58c95367cbc581e57f0ff583a6a92e84838db15395b760608501527f0aa44e1da044fa623768a5437180980dc5297679deafef26897293d32929ae0960808501527f174344df190ff8cb6a1cfbe06f0680be82777cdfe494885a47232e6b05aec82060a08501526114ae60608701518460c08701610cb1565b6000805160206116ef83398151915260608701516101608801510992506000805160206116ef8339815191526000805160206116cf833981519152840992506114f8838383610cb1565b6115058160c08601610bc6565b505050611519610200840160c08301610bc6565b610260830180516000805160206116af833981519152908103069052611546610240840160c08301610bc6565b7f198e9393920d483a7260bfb731fb5d25f1aa493335a9e71297e485b7aef312c26101008201527f1800deef121f1e76426a00665e5c4479674322d4f75edadd46debd5cd992f6ed6101208201527f090689d0585ff075ec9e99ad690c3395bc4b313370b38ef355acdadcd122975b6101408201527f12c85ea5db8c6deb4aab71808dcb408fe3d1e7690c43d37b4ce6cc0166fa7daa6101608201526020816101808360086107d05a03fa90511692915050565b6040516103a0810160405261160d610192565b61161783826101dc565b6116208161076b565b61162a838261099c565b61163381610a6e565b61163c81610cc2565b61164581611190565b61164e81611290565b61165781611380565b6103a082036040528060005260206000f35b600080610380838503121561167d57600080fd5b61030083018481111561168f57600080fd5b83925084610380850111156116a357600080fd5b80915050925092905056fe30644e72e131a029b85045b68181585d97816a916871ca8d3c208c16d87cfd4706fd19c17017a420ebbebc2bb08771e339ba79c0a8d2d7ab11f995e1bc2e591230644e72e131a029b85045b68181585d2833e84879b9709143e1f593f0000001a264697066735822122049742033ba2ea84227fa5ada73e91352247cdbd832fd72175f8a948384c5dcf564736f6c634300081c0033",
  "linkReferences": {},
  "deployedLinkReferences": {}
}