{
  "_format": "hh-sol-artifact-1",
  "contractName": "PrivateTransferV3",
  "sourceName": "contracts/plonk/PrivateTransferV3.sol",
  "abi": [
    {
      "inputs": [
        {
          "internalType": "address",
          "name": "_verifierAddress",
          "type": "address"
        }
      ],
      "stateMutability": "nonpayable",
      "type": "constructor"
    },
    {
      "anonymous": false,
      "inputs": [
        {
          "indexed": true,
          "internalType": "uint256",
          "name": "assetId",
          "type": "uint256"
        },
        {
          "indexed": false,
          "internalType": "bool",
          "name": "status",
          "type": "bool"
        }
      ],
      "name": "AssetWhitelisted",
      "type": "event"
    },
    {
      "anonymous": false,
      "inputs": [
        {
          "indexed": true,
          "internalType": "address",
          "name": "sender",
          "type": "address"
        },
        {
          "indexed": false,
          "internalType": "uint256",
          "name": "amount",
          "type": "uint256"
        },
        {
          "indexed": false,
          "internalType": "uint256",
          "name": "timestamp",
          "type": "uint256"
        }
      ],
      "name": "Deposit",
      "type": "event"
    },
    {
      "anonymous": false,
      "inputs": [
        {
          "indexed": false,
          "internalType": "bool",
          "name": "status",
          "type": "bool"
        }
      ],
      "name": "Paused",
      "type": "event"
    },
    {
      "anonymous": false,
      "inputs": [
        {
          "indexed": true,
          "internalType": "address",
          "name": "sender",
          "type": "address"
        },
        {
          "indexed": true,
          "internalType": "uint256",
          "name": "recipientHash",
          "type": "uint256"
        },
        {
          "indexed": true,
          "internalType": "uint256",
          "name": "assetId",
          "type": "uint256"
        },
        {
          "indexed": false,
          "internalType": "uint256",
          "name": "timestamp",
          "type": "uint256"
        },
        {
          "indexed": false,
          "internalType": "bool",
          "name": "valid",
          "type": "bool"
        },
        {
          "indexed": false,
          "internalType": "uint256",
          "name": "newBalance",
          "type": "uint256"
        }
      ],
      "name": "PrivateTransfer",
      "type": "event"
    },
    {
      "anonymous": false,
      "inputs": [
        {
          "indexed": true,
          "internalType": "uint256",
          "name": "recipientHash",
          "type": "uint256"
        },
        {
          "indexed": true,
          "internalType": "address",
          "name": "claimer",
          "type": "address"
        },
        {
          "indexed": false,
          "internalType": "uint256",
          "name": "amount",
          "type": "uint256"
        },
        {
          "indexed": false,
          "internalType": "uint256",
          "name": "timestamp",
          "type": "uint256"
        }
      ],
      "name": "TransferClaimed",
      "type": "event"
    },
    {
      "anonymous": false,
      "inputs": [
        {
          "indexed": true,
          "internalType": "address",
          "name": "recipient",
          "type": "address"
        },
        {
          "indexed": false,
          "internalType": "uint256",
          "name": "amount",
          "type": "uint256"
        },
        {
          "indexed": false,
          "internalType": "uint256",
          "name": "timestamp",
          "type": "uint256"
        }
      ],
      "name": "Withdrawal",
      "type": "event"
    },
    {
      "inputs": [
        {
          "internalType": "address",
          "name": "",
          "type": "address"
        }
      ],
      "name": "balances",
      "outputs": [
        {
          "internalType": "uint256",
          "name": "",
          "type": "uint256"
        }
      ],
      "stateMutability": "view",
      "type": "function"
    },
    {
      "inputs": [
        {
          "internalType": "uint256",
          "name": "recipientHash",
          "type": "uint256"
        }
      ],
      "name": "claimTransfer",
      "outputs": [],
      "stateMutability": "nonpayable",
      "type": "function"
    },
    {
      "inputs": [],
      "name": "deposit",
      "outputs": [],
      "stateMutability": "payable",
      "type": "function"
    },
    {
      "inputs": [
        {
          "internalType": "address",
          "name": "account",
          "type": "address"
        }
      ],
      "name": "getBalance",
      "outputs": [
        {
          "internalType": "uint256",
          "name": "",
          "type": "uint256"
        }
      ],
      "stateMutability": "view",
      "type": "function"
    },
    {
      "inputs": [],
      "name": "getContractStats",
      "outputs": [
        {
          "internalType": "uint256",
          "name": "_totalDeposited",
          "type": "uint256"
        },
        {
          "internalType": "uint256",
          "name": "_totalTransfers",
          "type": "uint256"
        },
        {
          "internalType": "uint256",
          "name": "_totalPending",
          "type": "uint256"
        },
        {
          "internalType": "uint256",
          "name": "_contractBalance",
          "type": "uint256"
        }
      ],
      "stateMutability": "view",
      "type": "function"
    },
    {
      "inputs": [
        {
          "internalType": "uint256",
          "name": "recipientHash",
          "type": "uint256"
        }
      ],
      "name": "getPendingTransfer",
      "outputs": [
        {
          "internalType": "uint256",
          "name": "amount",
          "type": "uint256"
        },
        {
          "internalType": "uint256",
          "name": "assetId",
          "type": "uint256"
        },
        {
          "internalType": "uint256",
          "name": "timestamp",
          "type": "uint256"
        },
        {
          "internalType": "bool",
          "name": "claimed",
          "type": "bool"
        }
      ],
      "stateMutability": "view",
      "type": "function"
    },
    {
      "inputs": [
        {
          "internalType": "uint256",
          "name": "assetId",
          "type": "uint256"
        }
      ],
      "name": "isAssetWhitelisted",
      "outputs": [
        {
          "internalType": "bool",
          "name": "",
          "type": "bool"
        }
      ],
      "stateMutability": "view",
      "type": "function"
    },
    {
      "inputs": [],
      "name": "owner",
      "outputs": [
        {
          "internalType": "address",
          "name": "",
          "type": "address"
        }
      ],
      "stateMutability": "view",
      "type": "function"
    },
    {
      "inputs": [],
      "name": "paused",
      "outputs": [
        {
          "internalType": "bool",
          "name": "",
          "type": "bool"
        }
      ],
      "stateMutability": "view",
      "type": "function"
    },
    {
      "inputs": [
        {
          "internalType": "uint256",
          "name": "",
          "type": "uint256"
        }
      ],
      "name": "pendingTransfers",
      "outputs": [
        {
          "internalType": "uint256",
          "name": "amount",
          "type": "uint256"
        },
        {
          "internalType": "uint256",
          "name": "assetId",
          "type": "uint256"
        },
        {
          "internalType": "uint256",
          "name": "timestamp",
          "type": "uint256"
        },
        {
          "internalType": "bool",
          "name": "claimed",
          "type": "bool"
        }
      ],
      "stateMutability": "view",
      "type": "function"
    },
    {
      "inputs": [
        {
          "internalType": "uint256[24]",
          "name": "proof",
          "type": "uint256[24]"
        },
        {
          "internalType": "uint256[7]",
          "name": "publicSignals",
          "type": "uint256[7]"
        }
      ],
      "name": "privateTransfer",
      "outputs": [],
      "stateMutability": "nonpayable",
      "type": "function"
    },
    {
      "inputs": [
        {
          "internalType": "uint256",
          "name": "assetId",
          "type": "uint256"
        },
        {
          "internalType": "bool",
          "name": "status",
          "type": "bool"
        }
      ],
      "name": "setAssetWhitelist",
      "outputs": [],
      "stateMutability": "nonpayable",
      "type": "function"
    },
    {
      "inputs": [
        {
          "internalType": "bool",
          "name": "_paused",
          "type": "bool"
        }
      ],
      "name": "setPaused",
      "outputs": [],
      "stateMutability": "nonpayable",
      "type": "function"
    },
    {
      "inputs": [],
      "name": "totalDeposited",
      "outputs": [
        {
          "internalType": "uint256",
          "name": "",
          "type": "uint256"
        }
      ],
      "stateMutability": "view",
      "type": "function"
    },
    {
      "inputs": [],
      "name": "totalPending",
      "outputs": [
        {
          "internalType": "uint256",
          "name": "",
          "type": "uint256"
        }
      ],
      "stateMutability": "view",
      "type": "function"
    },
    {
      "inputs": [],
      "name": "totalTransfers",
      "outputs": [
        {
          "internalType": "uint256",
          "name": "",
          "type": "uint256"
        }
      ],
      "stateMutability": "view",
      "type": "function"
    },
    {
      "inputs": [
        {
          "internalType": "address",
          "name": "newOwner",
          "type": "address"
        }
      ],
      "name": "transferOwnership",
      "outputs": [],
      "stateMutability": "nonpayable",
      "type": "function"
    },
    {
      "inputs": [
        {
          "internalType": "address",
          "name": "_verifierAddress",
          "type": "address"
        }
      ],
      "name": "updateVerifier",
      "outputs": [],
      "stateMutability": "nonpayable",
      "type": "function"
    },
    {
      "inputs": [],
      "name": "verifier",
      "outputs": [
        {
          "internalType": "contract IPlonkVerifier",
          "name": "",
          "type": "address"
        }
      ],
      "stateMutability": "view",
      "type": "function"
    },
    {
      "inputs": [
        {
          "internalType": "uint256",
          "name": "",
          "type": "uint256"
        }
      ],
      "name": "whitelistedAssets",
      "outputs": [
        {
          "internalType": "bool",
          "name": "",
          "type": "bool"
        }
      ],
      "stateMutability": "view",
      "type": "function"
    },
    {
      "inputs": [
        {
          "internalType": "uint256",
          "name": "amount",
          "type": "uint256"
        },
        {
          "internalType": "address payable",
          "name": "recipient",
          "type": "address"
        }
      ],
      "name": "withdraw",
      "outputs": [],
      "stateMutability": "nonpayable",
      "type": "function"
    },
    {
      "stateMutability": "payable",
      "type": "receive"
    }
  ],
  "bytecode": "0x608060405234801561001057600080fd5b5060405161132938038061132983398101604081905261002f9161011b565b600080546001600160a01b0319166001600160a01b038316178155600780546001600160a81b0319163360ff60a01b1916179055600260209081527fe5c232d172908e820c4f3c99f078fc6942cf12e13902ec71ee035eeae0c46ea8805460ff1990811660019081179092556107d09093527faf45d3fc6d0ee49444ba1d626e6be6fb8bf5018c6dbcc5b6030b09677a60821e805490931681179092556040519182526107ce91600080516020611309833981519152910160405180910390a2604051600181526107d0906000805160206113098339815191529060200160405180910390a25061014b565b60006020828403121561012d57600080fd5b81516001600160a01b038116811461014457600080fd5b9392505050565b6111af8061015a6000396000f3fe60806040526004361061012d5760003560e01c80635c975abb116100ab578063d0e30db01161006f578063d0e30db014610430578063dfe6b5d614610438578063f2fde38b1461046f578063f8b2cb4f1461048f578063f91a7b89146104c5578063ff50abdc1461052e57600080fd5b80635c975abb146103365780636577b86a14610357578063699b475c146103c05780638da5cb5b146103f057806397fc007c1461041057600080fd5b806327e235e3116100f257806327e235e3146102775780632b7ac3f3146102b25780633bf47720146102ea5780633f90916a14610300578063591852951461031657600080fd5b8062f714ce146101b05780630a7920c5146101d25780630c0caf7b146101f257806316c38b3c146102125780631fde3c751461023257600080fd5b366101ab573360009081526001602052604081208054349290610151908490610f73565b92505081905550346004600082825461016a9190610f73565b90915550506040805134815242602082015233917f90890809c654f11d6e72a28fa60149770a0d11ec6c92319d6ceb2bb0a4ea1a15910160405180910390a2005b600080fd5b3480156101bc57600080fd5b506101d06101cb366004610fa4565b610544565b005b3480156101de57600080fd5b506101d06101ed366004610fd4565b610777565b3480156101fe57600080fd5b506101d061020d366004610ffb565b6108de565b34801561021e57600080fd5b506101d061022d366004611020565b61095f565b34801561023e57600080fd5b5061026261024d366004610fd4565b60026020526000908152604090205460ff1681565b60405190151581526020015b60405180910390f35b34801561028357600080fd5b506102a4610292366004611044565b60016020526000908152604090205481565b60405190815260200161026e565b3480156102be57600080fd5b506000546102d2906001600160a01b031681565b6040516001600160a01b03909116815260200161026e565b3480156102f657600080fd5b506102a460055481565b34801561030c57600080fd5b506102a460065481565b34801561032257600080fd5b506101d0610331366004611061565b6109e1565b34801561034257600080fd5b5060075461026290600160a01b900460ff1681565b34801561036357600080fd5b5061039e610372366004610fd4565b600360208190526000918252604090912080546001820154600283015492909301549092919060ff1684565b604080519485526020850193909352918301521515606082015260800161026e565b3480156103cc57600080fd5b506102626103db366004610fd4565b60009081526002602052604090205460ff1690565b3480156103fc57600080fd5b506007546102d2906001600160a01b031681565b34801561041c57600080fd5b506101d061042b366004611044565b610d24565b6101d0610dc6565b34801561044457600080fd5b506004546005546006544760408051948552602085019390935291830152606082015260800161026e565b34801561047b57600080fd5b506101d061048a366004611044565b610ec7565b34801561049b57600080fd5b506102a46104aa366004611044565b6001600160a01b031660009081526001602052604090205490565b3480156104d157600080fd5b5061039e6104e0366004610fd4565b6000908152600360208181526040928390208351608081018552815480825260018301549382018490526002830154958201869052919093015460ff16151560609093018390529390929190565b34801561053a57600080fd5b506102a460045481565b600754600160a01b900460ff16156105775760405162461bcd60e51b815260040161056e9061109b565b60405180910390fd5b600082116105d85760405162461bcd60e51b815260206004820152602860248201527f5769746864726177616c20616d6f756e74206d75737420626520677265617465604482015267072207468616e20360c41b606482015260840161056e565b3360009081526001602052604090205482111561062e5760405162461bcd60e51b8152602060048201526014602482015273496e73756666696369656e742062616c616e636560601b604482015260640161056e565b6001600160a01b0381166106785760405162461bcd60e51b8152602060048201526011602482015270125b9d985b1a59081c9958da5c1a595b9d607a1b604482015260640161056e565b33600090815260016020526040812080548492906106979084906110c7565b90915550506040516000906001600160a01b0383169084908381818185875af1925050503d80600081146106e7576040519150601f19603f3d011682016040523d82523d6000602084013e6106ec565b606091505b505090508061072f5760405162461bcd60e51b815260206004820152600f60248201526e151c985b9cd9995c8819985a5b1959608a1b604482015260640161056e565b604080518481524260208201526001600160a01b038416917fdf273cb619d95419a9cd0ec88123a0538c85064229baa6363788f743fff90deb910160405180910390a2505050565b600754600160a01b900460ff16156107a15760405162461bcd60e51b815260040161056e9061109b565b600081815260036020526040902080546107fd5760405162461bcd60e51b815260206004820152601960248201527f4e6f2070656e64696e67207472616e7366657220666f756e6400000000000000604482015260640161056e565b600381015460ff16156108525760405162461bcd60e51b815260206004820152601860248201527f5472616e7366657220616c726561647920636c61696d65640000000000000000604482015260640161056e565b60038101805460ff1916600117905560068054906000610871836110da565b909155505080543360009081526001602052604081208054909190610897908490610f73565b9091555050805460408051918252426020830152339184917fe4a2e08b7ce0d2db91a67c857475eeddb60f1f5ebf28b41a6c0fdaec400d2662910160405180910390a35050565b6007546001600160a01b031633146109085760405162461bcd60e51b815260040161056e906110f1565b600082815260026020908152604091829020805460ff1916841515908117909155915191825283917fd0b712da413c996b03190948c782559cf27a01fc9b15ec67783898bcaa2fff09910160405180910390a25050565b6007546001600160a01b031633146109895760405162461bcd60e51b815260040161056e906110f1565b60078054821515600160a01b0260ff60a01b199091161790556040517f0e2fb031ee032dc02d8011dc50b816eb450cf856abd8261680dac74f72165bd2906109d690831515815260200190565b60405180910390a150565b600754600160a01b900460ff1615610a0b5760405162461bcd60e51b815260040161056e9061109b565b60808101356000818152600260209081526040918290205484359391850135928501359160608601359160a08701359060c08801359060ff16610a885760405162461bcd60e51b8152602060048201526015602482015274105cdcd95d081b9bdd081dda1a5d195b1a5cdd1959605a1b604482015260640161056e565b60008054604051636bb8d6cd60e01b81526001600160a01b0390911690636bb8d6cd90610abb908d908d90600401611128565b602060405180830381865afa158015610ad8573d6000803e3d6000fd5b505050506040513d601f19601f82011682018060405250810190610afc9190611143565b905080610b3b5760405162461bcd60e51b815260206004820152600d60248201526c24b73b30b634b210383937b7b360991b604482015260640161056e565b87600114610b8b5760405162461bcd60e51b815260206004820152601960248201527f436972637569742072656a6563746564207472616e7366657200000000000000604482015260640161056e565b33600090815260016020526040902054808810610be35760405162461bcd60e51b8152602060048201526016602482015275496e76616c69642062616c616e63652075706461746560501b604482015260640161056e565b6000610bef89836110c7565b3360009081526001602090815260408083208d90558a8352600390915290205490915015610c505760405162461bcd60e51b815260206004820152600e60248201526d2430b9b41031b7b63634b9b4b7b760911b604482015260640161056e565b604080516080810182528281526020808201898152428385019081526000606085018181528d8252600394859052958120945185559151600185015551600284015592519101805460ff19169115159190911790556005805491610cb383611160565b909155505060068054906000610cc883611160565b90915550506040805142815260018c1460208201529081018a90528690889033907f48be7be184d02dc1b81b99889bbe673aea68ad5fe8b79e49a1525367e7d985619060600160405180910390a4505050505050505050505050565b6007546001600160a01b03163314610d4e5760405162461bcd60e51b815260040161056e906110f1565b6001600160a01b038116610da45760405162461bcd60e51b815260206004820152601860248201527f496e76616c696420766572696669657220616464726573730000000000000000604482015260640161056e565b600080546001600160a01b0319166001600160a01b0392909216919091179055565b600754600160a01b900460ff1615610df05760405162461bcd60e51b815260040161056e9061109b565b60003411610e4e5760405162461bcd60e51b815260206004820152602560248201527f4465706f73697420616d6f756e74206d75737420626520677265617465722074604482015264068616e20360dc1b606482015260840161056e565b3360009081526001602052604081208054349290610e6d908490610f73565b925050819055503460046000828254610e869190610f73565b90915550506040805134815242602082015233917f90890809c654f11d6e72a28fa60149770a0d11ec6c92319d6ceb2bb0a4ea1a15910160405180910390a2565b6007546001600160a01b03163314610ef15760405162461bcd60e51b815260040161056e906110f1565b6001600160a01b038116610f3b5760405162461bcd60e51b815260206004820152601160248201527024b73b30b634b2103732bb9037bbb732b960791b604482015260640161056e565b600780546001600160a01b0319166001600160a01b0392909216919091179055565b634e487b7160e01b600052601160045260246000fd5b80820180821115610f8657610f86610f5d565b92915050565b6001600160a01b0381168114610fa157600080fd5b50565b60008060408385031215610fb757600080fd5b823591506020830135610fc981610f8c565b809150509250929050565b600060208284031215610fe657600080fd5b5035919050565b8015158114610fa157600080fd5b6000806040838503121561100e57600080fd5b823591506020830135610fc981610fed565b60006020828403121561103257600080fd5b813561103d81610fed565b9392505050565b60006020828403121561105657600080fd5b813561103d81610f8c565b6000806103e0838503121561107557600080fd5b61030083018481111561108757600080fd5b839250846103e085011115610fc957600080fd5b60208082526012908201527110dbdb9d1c9858dd081a5cc81c185d5cd95960721b604082015260600190565b81810381811115610f8657610f86610f5d565b6000816110e9576110e9610f5d565b506000190190565b60208082526018908201527f4f6e6c79206f776e65722063616e2063616c6c20746869730000000000000000604082015260600190565b6103e0810161030084833760e0836103008401379392505050565b60006020828403121561115557600080fd5b815161103d81610fed565b60006001820161117257611172610f5d565b506001019056fea26469706673582212202039c3c2bc3ca0f31c58e45f27feb6851282fbf4af3d2f331f4b3699e3a750fd64736f6c634300081c0033d0b712da413c996b03190948c782559cf27a01fc9b15ec67783898bcaa2fff09",
  "linkReferences": {},
  "deployedLinkReferences": {}
}