{
  "_format": "hh-sol-artifact-1",
  "contractName": "PrivateTransferV3",
  "sourceName": "contracts/plonk/PrivateTransferV3.sol",
  "abi": [
    {
      "inputs": [
        {
          "internalType": "address",
          "name": "_verifierAddress",
          "type": "address"
        }
      ],
      "stateMutability": "nonpayable",
      "type": "constructor"
    },
    {
      "anonymous": false,
      "inputs": [
        {
          "indexed": true,
          "internalType": "uint256",
          "name": "assetId",
          "type": "uint256"
        },
        {
          "indexed": false,
          "internalType": "bool",
          "name": "status",
          "type": "bool"
        }
      ],
      "name": "AssetWhitelisted",
      "type": "event"
    },
    {
      "anonymous": false,
      "inputs": [
        {
          "indexed": true,
          "internalType": "address",
          "name": "sender",
          "type": "address"
        },
        {
          "indexed": false,
          "internalType": "uint256",
          "name": "amount",
          "type": "uint256"
        },
        {
          "indexed": false,
          "internalType": "uint256",
          "name": "timestamp",
          "type": "uint256"
        }
      ],
      "name": "Deposit",
      "type": "event"
    },
    {
      "anonymous": false,
      "inputs": [
        {
          "indexed": false,
          "internalType": "bool",
          "name": "status",
          "type": "bool"
        }
      ],
      "name": "Paused",
      "type": "event"
    },
    {
      "anonymous": false,
      "inputs": [
        {
          "indexed": true,
          "internalType": "address",
          "name": "sender",
          "type": "address"
        },
        {
          "indexed": true,
          "internalType": "uint256",
          "name": "assetId",
          "type": "uint256"
        },
        {
          "indexed": false,
          "internalType": "uint256",
          "name": "timestamp",
          "type": "uint256"
        },
        {
          "indexed": false,
          "internalType": "bool",
          "name": "valid",
          "type": "bool"
        },
        {
          "indexed": false,
          "internalType": "uint256",
          "name": "newBalance",
          "type": "uint256"
        }
      ],
      "name": "PrivateTransfer",
      "type": "event"
    },
    {
      "anonymous": false,
      "inputs": [
        {
          "indexed": true,
          "internalType": "address",
          "name": "recipient",
          "type": "address"
        },
        {
          "indexed": false,
          "internalType": "uint256",
          "name": "amount",
          "type": "uint256"
        },
        {
          "indexed": false,
          "internalType": "uint256",
          "name": "timestamp",
          "type": "uint256"
        }
      ],
      "name": "Withdrawal",
      "type": "event"
    },
    {
      "inputs": [
        {
          "internalType": "address",
          "name": "",
          "type": "address"
        }
      ],
      "name": "balances",
      "outputs": [
        {
          "internalType": "uint256",
          "name": "",
          "type": "uint256"
        }
      ],
      "stateMutability": "view",
      "type": "function"
    },
    {
      "inputs": [],
      "name": "deposit",
      "outputs": [],
      "stateMutability": "payable",
      "type": "function"
    },
    {
      "inputs": [
        {
          "internalType": "address",
          "name": "account",
          "type": "address"
        }
      ],
      "name": "getBalance",
      "outputs": [
        {
          "internalType": "uint256",
          "name": "",
          "type": "uint256"
        }
      ],
      "stateMutability": "view",
      "type": "function"
    },
    {
      "inputs": [],
      "name": "getContractStats",
      "outputs": [
        {
          "internalType": "uint256",
          "name": "_totalDeposited",
          "type": "uint256"
        },
        {
          "internalType": "uint256",
          "name": "_totalTransfers",
          "type": "uint256"
        },
        {
          "internalType": "uint256",
          "name": "_contractBalance",
          "type": "uint256"
        }
      ],
      "stateMutability": "view",
      "type": "function"
    },
    {
      "inputs": [
        {
          "internalType": "uint256",
          "name": "assetId",
          "type": "uint256"
        }
      ],
      "name": "isAssetWhitelisted",
      "outputs": [
        {
          "internalType": "bool",
          "name": "",
          "type": "bool"
        }
      ],
      "stateMutability": "view",
      "type": "function"
    },
    {
      "inputs": [],
      "name": "owner",
      "outputs": [
        {
          "internalType": "address",
          "name": "",
          "type": "address"
        }
      ],
      "stateMutability": "view",
      "type": "function"
    },
    {
      "inputs": [],
      "name": "paused",
      "outputs": [
        {
          "internalType": "bool",
          "name": "",
          "type": "bool"
        }
      ],
      "stateMutability": "view",
      "type": "function"
    },
    {
      "inputs": [
        {
          "internalType": "bytes",
          "name": "proof",
          "type": "bytes"
        },
        {
          "internalType": "uint256[]",
          "name": "publicSignals",
          "type": "uint256[]"
        }
      ],
      "name": "privateTransfer",
      "outputs": [],
      "stateMutability": "nonpayable",
      "type": "function"
    },
    {
      "inputs": [
        {
          "internalType": "uint256",
          "name": "assetId",
          "type": "uint256"
        },
        {
          "internalType": "bool",
          "name": "status",
          "type": "bool"
        }
      ],
      "name": "setAssetWhitelist",
      "outputs": [],
      "stateMutability": "nonpayable",
      "type": "function"
    },
    {
      "inputs": [
        {
          "internalType": "bool",
          "name": "_paused",
          "type": "bool"
        }
      ],
      "name": "setPaused",
      "outputs": [],
      "stateMutability": "nonpayable",
      "type": "function"
    },
    {
      "inputs": [],
      "name": "totalDeposited",
      "outputs": [
        {
          "internalType": "uint256",
          "name": "",
          "type": "uint256"
        }
      ],
      "stateMutability": "view",
      "type": "function"
    },
    {
      "inputs": [],
      "name": "totalTransfers",
      "outputs": [
        {
          "internalType": "uint256",
          "name": "",
          "type": "uint256"
        }
      ],
      "stateMutability": "view",
      "type": "function"
    },
    {
      "inputs": [
        {
          "internalType": "address",
          "name": "newOwner",
          "type": "address"
        }
      ],
      "name": "transferOwnership",
      "outputs": [],
      "stateMutability": "nonpayable",
      "type": "function"
    },
    {
      "inputs": [
        {
          "internalType": "address",
          "name": "_verifierAddress",
          "type": "address"
        }
      ],
      "name": "updateVerifier",
      "outputs": [],
      "stateMutability": "nonpayable",
      "type": "function"
    },
    {
      "inputs": [],
      "name": "verifier",
      "outputs": [
        {
          "internalType": "contract IPlonkVerifier",
          "name": "",
          "type": "address"
        }
      ],
      "stateMutability": "view",
      "type": "function"
    },
    {
      "inputs": [
        {
          "internalType": "uint256",
          "name": "",
          "type": "uint256"
        }
      ],
      "name": "whitelistedAssets",
      "outputs": [
        {
          "internalType": "bool",
          "name": "",
          "type": "bool"
        }
      ],
      "stateMutability": "view",
      "type": "function"
    },
    {
      "inputs": [
        {
          "internalType": "uint256",
          "name": "amount",
          "type": "uint256"
        },
        {
          "internalType": "address payable",
          "name": "recipient",
          "type": "address"
        }
      ],
      "name": "withdraw",
      "outputs": [],
      "stateMutability": "nonpayable",
      "type": "function"
    },
    {
      "stateMutability": "payable",
      "type": "receive"
    }
  ],
  "bytecode": "0x608060405234801561001057600080fd5b5060405161120238038061120283398101604081905261002f9161011b565b600080546001600160a01b0319166001600160a01b038316178155600580546001600160a81b0319163360ff60a01b1916179055600260209081527fe5c232d172908e820c4f3c99f078fc6942cf12e13902ec71ee035eeae0c46ea8805460ff1990811660019081179092556107d09093527faf45d3fc6d0ee49444ba1d626e6be6fb8bf5018c6dbcc5b6030b09677a60821e805490931681179092556040519182526107ce916000805160206111e2833981519152910160405180910390a2604051600181526107d0906000805160206111e28339815191529060200160405180910390a25061014b565b60006020828403121561012d57600080fd5b81516001600160a01b038116811461014457600080fd5b9392505050565b6110888061015a6000396000f3fe6080604052600436106101015760003560e01c80635c975abb11610095578063d0e30db011610064578063d0e30db014610365578063dfe6b5d61461036d578063f2fde38b1461039c578063f8b2cb4f146103bc578063ff50abdc146103f257600080fd5b80635c975abb146102d4578063699b475c146102f55780638da5cb5b1461032557806397fc007c1461034557600080fd5b806327e235e3116100d157806327e235e31461022b5780632b7ac3f3146102665780633bf477201461029e5780634259893f146102b457600080fd5b8062f714ce146101845780630c0caf7b146101a657806316c38b3c146101c65780631fde3c75146101e657600080fd5b3661017f573360009081526001602052604081208054349290610125908490610d21565b92505081905550346003600082825461013e9190610d21565b90915550506040805134815242602082015233917f90890809c654f11d6e72a28fa60149770a0d11ec6c92319d6ceb2bb0a4ea1a15910160405180910390a2005b600080fd5b34801561019057600080fd5b506101a461019f366004610d52565b610408565b005b3480156101b257600080fd5b506101a46101c1366004610d90565b61063b565b3480156101d257600080fd5b506101a46101e1366004610db5565b6106bc565b3480156101f257600080fd5b50610216610201366004610dd9565b60026020526000908152604090205460ff1681565b60405190151581526020015b60405180910390f35b34801561023757600080fd5b50610258610246366004610df2565b60016020526000908152604090205481565b604051908152602001610222565b34801561027257600080fd5b50600054610286906001600160a01b031681565b6040516001600160a01b039091168152602001610222565b3480156102aa57600080fd5b5061025860045481565b3480156102c057600080fd5b506101a46102cf366004610e0f565b61073e565b3480156102e057600080fd5b5060055461021690600160a01b900460ff1681565b34801561030157600080fd5b50610216610310366004610dd9565b60009081526002602052604090205460ff1690565b34801561033157600080fd5b50600554610286906001600160a01b031681565b34801561035157600080fd5b506101a4610360366004610df2565b610ad2565b6101a4610b74565b34801561037957600080fd5b506003546004544760408051938452602084019290925290820152606001610222565b3480156103a857600080fd5b506101a46103b7366004610df2565b610c75565b3480156103c857600080fd5b506102586103d7366004610df2565b6001600160a01b031660009081526001602052604090205490565b3480156103fe57600080fd5b5061025860035481565b600554600160a01b900460ff161561043b5760405162461bcd60e51b815260040161043290610ee2565b60405180910390fd5b6000821161049c5760405162461bcd60e51b815260206004820152602860248201527f5769746864726177616c20616d6f756e74206d75737420626520677265617465604482015267072207468616e20360c41b6064820152608401610432565b336000908152600160205260409020548211156104f25760405162461bcd60e51b8152602060048201526014602482015273496e73756666696369656e742062616c616e636560601b6044820152606401610432565b6001600160a01b03811661053c5760405162461bcd60e51b8152602060048201526011602482015270125b9d985b1a59081c9958da5c1a595b9d607a1b6044820152606401610432565b336000908152600160205260408120805484929061055b908490610f0e565b90915550506040516000906001600160a01b0383169084908381818185875af1925050503d80600081146105ab576040519150601f19603f3d011682016040523d82523d6000602084013e6105b0565b606091505b50509050806105f35760405162461bcd60e51b815260206004820152600f60248201526e151c985b9cd9995c8819985a5b1959608a1b6044820152606401610432565b604080518481524260208201526001600160a01b038416917fdf273cb619d95419a9cd0ec88123a0538c85064229baa6363788f743fff90deb910160405180910390a2505050565b6005546001600160a01b031633146106655760405162461bcd60e51b815260040161043290610f21565b600082815260026020908152604091829020805460ff1916841515908117909155915191825283917fd0b712da413c996b03190948c782559cf27a01fc9b15ec67783898bcaa2fff09910160405180910390a25050565b6005546001600160a01b031633146106e65760405162461bcd60e51b815260040161043290610f21565b60058054821515600160a01b0260ff60a01b199091161790556040517f0e2fb031ee032dc02d8011dc50b816eb450cf856abd8261680dac74f72165bd29061073390831515815260200190565b60405180910390a150565b600554600160a01b900460ff16156107685760405162461bcd60e51b815260040161043290610ee2565b600481146107b85760405162461bcd60e51b815260206004820152601d60248201527f496e76616c6964207075626c6963207369676e616c73206c656e6774680000006044820152606401610432565b6000828260008181106107cd576107cd610f58565b9050602002013590506000838360018181106107eb576107eb610f58565b90506020020135905060008484600281811061080957610809610f58565b90506020020135905060008585600381811061082757610827610f58565b60209081029290920135600081815260029093526040909220549192505060ff1661088c5760405162461bcd60e51b8152602060048201526015602482015274105cdcd95d081b9bdd081dda1a5d195b1a5cdd1959605a1b6044820152606401610432565b600088888080601f0160208091040260200160405190810160405280939291908181526020018383808284376000920182905250939450899250505067ffffffffffffffff8111156108e0576108e0610f6e565b604051908082528060200260200182016040528015610909578160200160208202803683370190505b50905060005b878110156109555788888281811061092957610929610f58565b9050602002013582828151811061094257610942610f58565b602090810291909101015260010161090f565b5060008054604051631e8e1e1360e01b81526001600160a01b0390911690631e8e1e13906109899086908690600401610f84565b602060405180830381865afa1580156109a6573d6000803e3d6000fd5b505050506040513d601f19601f820116820180604052508101906109ca919061101c565b905080610a095760405162461bcd60e51b815260206004820152600d60248201526c24b73b30b634b210383937b7b360991b6044820152606401610432565b86600114610a595760405162461bcd60e51b815260206004820152601960248201527f436972637569742072656a6563746564207472616e73666572000000000000006044820152606401610432565b3360009081526001602052604081208790556004805491610a7983611039565b909155505060408051428152600189146020820152908101879052849033907fab919ccd290a898c0328f83f490515ef460aab6679dd0ece2eecc6f4f0c0bfec9060600160405180910390a35050505050505050505050565b6005546001600160a01b03163314610afc5760405162461bcd60e51b815260040161043290610f21565b6001600160a01b038116610b525760405162461bcd60e51b815260206004820152601860248201527f496e76616c6964207665726966696572206164647265737300000000000000006044820152606401610432565b600080546001600160a01b0319166001600160a01b0392909216919091179055565b600554600160a01b900460ff1615610b9e5760405162461bcd60e51b815260040161043290610ee2565b60003411610bfc5760405162461bcd60e51b815260206004820152602560248201527f4465706f73697420616d6f756e74206d75737420626520677265617465722074604482015264068616e20360dc1b6064820152608401610432565b3360009081526001602052604081208054349290610c1b908490610d21565b925050819055503460036000828254610c349190610d21565b90915550506040805134815242602082015233917f90890809c654f11d6e72a28fa60149770a0d11ec6c92319d6ceb2bb0a4ea1a15910160405180910390a2565b6005546001600160a01b03163314610c9f5760405162461bcd60e51b815260040161043290610f21565b6001600160a01b038116610ce95760405162461bcd60e51b815260206004820152601160248201527024b73b30b634b2103732bb9037bbb732b960791b6044820152606401610432565b600580546001600160a01b0319166001600160a01b0392909216919091179055565b634e487b7160e01b600052601160045260246000fd5b80820180821115610d3457610d34610d0b565b92915050565b6001600160a01b0381168114610d4f57600080fd5b50565b60008060408385031215610d6557600080fd5b823591506020830135610d7781610d3a565b809150509250929050565b8015158114610d4f57600080fd5b60008060408385031215610da357600080fd5b823591506020830135610d7781610d82565b600060208284031215610dc757600080fd5b8135610dd281610d82565b9392505050565b600060208284031215610deb57600080fd5b5035919050565b600060208284031215610e0457600080fd5b8135610dd281610d3a565b60008060008060408587031215610e2557600080fd5b843567ffffffffffffffff811115610e3c57600080fd5b8501601f81018713610e4d57600080fd5b803567ffffffffffffffff811115610e6457600080fd5b876020828401011115610e7657600080fd5b60209182019550935085013567ffffffffffffffff811115610e9757600080fd5b8501601f81018713610ea857600080fd5b803567ffffffffffffffff811115610ebf57600080fd5b8760208260051b8401011115610ed457600080fd5b949793965060200194505050565b60208082526012908201527110dbdb9d1c9858dd081a5cc81c185d5cd95960721b604082015260600190565b81810381811115610d3457610d34610d0b565b60208082526018908201527f4f6e6c79206f776e65722063616e2063616c6c20746869730000000000000000604082015260600190565b634e487b7160e01b600052603260045260246000fd5b634e487b7160e01b600052604160045260246000fd5b604081526000835180604084015260005b81811015610fb25760208187018101516060868401015201610f95565b50600060608285010152601f19601f82011683019050606081016060848303016020850152808551808352608084019150602087019350600092505b808310156110115783518252602082019150602084019350600183019250610fee565b509695505050505050565b60006020828403121561102e57600080fd5b8151610dd281610d82565b60006001820161104b5761104b610d0b565b506001019056fea26469706673582212203028f96a79187c9cbafbd5d4b346c94dd1d13a33aa7df4434dd0883218900b3764736f6c634300081c0033d0b712da413c996b03190948c782559cf27a01fc9b15ec67783898bcaa2fff09",
  "linkReferences": {},
  "deployedLinkReferences": {}
}