{
  "_format": "hh-sol-artifact-1",
  "contractName": "PrivateTransferV3",
  "sourceName": "contracts/plonk/PrivateTransferV3.sol",
  "abi": [
    {
      "inputs": [
        {
          "internalType": "address",
          "name": "_verifierAddress",
          "type": "address"
        }
      ],
      "stateMutability": "nonpayable",
      "type": "constructor"
    },
    {
      "anonymous": false,
      "inputs": [
        {
          "indexed": true,
          "internalType": "uint256",
          "name": "assetId",
          "type": "uint256"
        },
        {
          "indexed": false,
          "internalType": "bool",
          "name": "status",
          "type": "bool"
        }
      ],
      "name": "AssetWhitelisted",
      "type": "event"
    },
    {
      "anonymous": false,
      "inputs": [
        {
          "indexed": true,
          "internalType": "address",
          "name": "sender",
          "type": "address"
        },
        {
          "indexed": false,
          "internalType": "uint256",
          "name": "amount",
          "type": "uint256"
        },
        {
          "indexed": false,
          "internalType": "uint256",
          "name": "timestamp",
          "type": "uint256"
        }
      ],
      "name": "Deposit",
      "type": "event"
    },
    {
      "anonymous": false,
      "inputs": [
        {
          "indexed": true,
          "internalType": "uint256",
          "name": "nullifier",
          "type": "uint256"
        },
        {
          "indexed": true,
          "internalType": "address",
          "name": "sender",
          "type": "address"
        },
        {
          "indexed": false,
          "internalType": "uint256",
          "name": "timestamp",
          "type": "uint256"
        }
      ],
      "name": "NullifierUsed",
      "type": "event"
    },
    {
      "anonymous": false,
      "inputs": [
        {
          "indexed": false,
          "internalType": "bool",
          "name": "status",
          "type": "bool"
        }
      ],
      "name": "Paused",
      "type": "event"
    },
    {
      "anonymous": false,
      "inputs": [
        {
          "indexed": true,
          "internalType": "address",
          "name": "sender",
          "type": "address"
        },
        {
          "indexed": true,
          "internalType": "uint256",
          "name": "recipientHash",
          "type": "uint256"
        },
        {
          "indexed": true,
          "internalType": "uint256",
          "name": "assetId",
          "type": "uint256"
        },
        {
          "indexed": false,
          "internalType": "uint256",
          "name": "timestamp",
          "type": "uint256"
        },
        {
          "indexed": false,
          "internalType": "bool",
          "name": "valid",
          "type": "bool"
        },
        {
          "indexed": false,
          "internalType": "uint256",
          "name": "newBalance",
          "type": "uint256"
        }
      ],
      "name": "PrivateTransfer",
      "type": "event"
    },
    {
      "anonymous": false,
      "inputs": [
        {
          "indexed": true,
          "internalType": "uint256",
          "name": "recipientHash",
          "type": "uint256"
        },
        {
          "indexed": true,
          "internalType": "address",
          "name": "claimer",
          "type": "address"
        },
        {
          "indexed": false,
          "internalType": "uint256",
          "name": "amount",
          "type": "uint256"
        },
        {
          "indexed": false,
          "internalType": "uint256",
          "name": "timestamp",
          "type": "uint256"
        }
      ],
      "name": "TransferClaimed",
      "type": "event"
    },
    {
      "anonymous": false,
      "inputs": [
        {
          "indexed": true,
          "internalType": "address",
          "name": "recipient",
          "type": "address"
        },
        {
          "indexed": false,
          "internalType": "uint256",
          "name": "amount",
          "type": "uint256"
        },
        {
          "indexed": false,
          "internalType": "uint256",
          "name": "timestamp",
          "type": "uint256"
        }
      ],
      "name": "Withdrawal",
      "type": "event"
    },
    {
      "inputs": [
        {
          "internalType": "address",
          "name": "",
          "type": "address"
        }
      ],
      "name": "balances",
      "outputs": [
        {
          "internalType": "uint256",
          "name": "",
          "type": "uint256"
        }
      ],
      "stateMutability": "view",
      "type": "function"
    },
    {
      "inputs": [
        {
          "internalType": "uint256",
          "name": "recipientHash",
          "type": "uint256"
        }
      ],
      "name": "claimTransfer",
      "outputs": [],
      "stateMutability": "nonpayable",
      "type": "function"
    },
    {
      "inputs": [],
      "name": "deposit",
      "outputs": [],
      "stateMutability": "payable",
      "type": "function"
    },
    {
      "inputs": [
        {
          "internalType": "address",
          "name": "account",
          "type": "address"
        }
      ],
      "name": "getBalance",
      "outputs": [
        {
          "internalType": "uint256",
          "name": "",
          "type": "uint256"
        }
      ],
      "stateMutability": "view",
      "type": "function"
    },
    {
      "inputs": [],
      "name": "getContractStats",
      "outputs": [
        {
          "internalType": "uint256",
          "name": "_totalDeposited",
          "type": "uint256"
        },
        {
          "internalType": "uint256",
          "name": "_totalTransfers",
          "type": "uint256"
        },
        {
          "internalType": "uint256",
          "name": "_totalPending",
          "type": "uint256"
        },
        {
          "internalType": "uint256",
          "name": "_contractBalance",
          "type": "uint256"
        }
      ],
      "stateMutability": "view",
      "type": "function"
    },
    {
      "inputs": [
        {
          "internalType": "uint256",
          "name": "recipientHash",
          "type": "uint256"
        }
      ],
      "name": "getPendingTransfer",
      "outputs": [
        {
          "internalType": "uint256",
          "name": "amount",
          "type": "uint256"
        },
        {
          "internalType": "uint256",
          "name": "assetId",
          "type": "uint256"
        },
        {
          "internalType": "uint256",
          "name": "timestamp",
          "type": "uint256"
        },
        {
          "internalType": "bool",
          "name": "claimed",
          "type": "bool"
        }
      ],
      "stateMutability": "view",
      "type": "function"
    },
    {
      "inputs": [
        {
          "internalType": "uint256",
          "name": "assetId",
          "type": "uint256"
        }
      ],
      "name": "isAssetWhitelisted",
      "outputs": [
        {
          "internalType": "bool",
          "name": "",
          "type": "bool"
        }
      ],
      "stateMutability": "view",
      "type": "function"
    },
    {
      "inputs": [
        {
          "internalType": "uint256",
          "name": "",
          "type": "uint256"
        }
      ],
      "name": "nullifiers",
      "outputs": [
        {
          "internalType": "bool",
          "name": "",
          "type": "bool"
        }
      ],
      "stateMutability": "view",
      "type": "function"
    },
    {
      "inputs": [],
      "name": "owner",
      "outputs": [
        {
          "internalType": "address",
          "name": "",
          "type": "address"
        }
      ],
      "stateMutability": "view",
      "type": "function"
    },
    {
      "inputs": [],
      "name": "paused",
      "outputs": [
        {
          "internalType": "bool",
          "name": "",
          "type": "bool"
        }
      ],
      "stateMutability": "view",
      "type": "function"
    },
    {
      "inputs": [
        {
          "internalType": "uint256",
          "name": "",
          "type": "uint256"
        }
      ],
      "name": "pendingTransfers",
      "outputs": [
        {
          "internalType": "uint256",
          "name": "amount",
          "type": "uint256"
        },
        {
          "internalType": "uint256",
          "name": "assetId",
          "type": "uint256"
        },
        {
          "internalType": "uint256",
          "name": "timestamp",
          "type": "uint256"
        },
        {
          "internalType": "bool",
          "name": "claimed",
          "type": "bool"
        }
      ],
      "stateMutability": "view",
      "type": "function"
    },
    {
      "inputs": [
        {
          "internalType": "uint256[24]",
          "name": "proof",
          "type": "uint256[24]"
        },
        {
          "internalType": "uint256[8]",
          "name": "publicSignals",
          "type": "uint256[8]"
        }
      ],
      "name": "privateTransfer",
      "outputs": [],
      "stateMutability": "nonpayable",
      "type": "function"
    },
    {
      "inputs": [
        {
          "internalType": "uint256",
          "name": "assetId",
          "type": "uint256"
        },
        {
          "internalType": "bool",
          "name": "status",
          "type": "bool"
        }
      ],
      "name": "setAssetWhitelist",
      "outputs": [],
      "stateMutability": "nonpayable",
      "type": "function"
    },
    {
      "inputs": [
        {
          "internalType": "bool",
          "name": "_paused",
          "type": "bool"
        }
      ],
      "name": "setPaused",
      "outputs": [],
      "stateMutability": "nonpayable",
      "type": "function"
    },
    {
      "inputs": [],
      "name": "totalDeposited",
      "outputs": [
        {
          "internalType": "uint256",
          "name": "",
          "type": "uint256"
        }
      ],
      "stateMutability": "view",
      "type": "function"
    },
    {
      "inputs": [],
      "name": "totalPending",
      "outputs": [
        {
          "internalType": "uint256",
          "name": "",
          "type": "uint256"
        }
      ],
      "stateMutability": "view",
      "type": "function"
    },
    {
      "inputs": [],
      "name": "totalTransfers",
      "outputs": [
        {
          "internalType": "uint256",
          "name": "",
          "type": "uint256"
        }
      ],
      "stateMutability": "view",
      "type": "function"
    },
    {
      "inputs": [
        {
          "internalType": "address",
          "name": "newOwner",
          "type": "address"
        }
      ],
      "name": "transferOwnership",
      "outputs": [],
      "stateMutability": "nonpayable",
      "type": "function"
    },
    {
      "inputs": [
        {
          "internalType": "address",
          "name": "_verifierAddress",
          "type": "address"
        }
      ],
      "name": "updateVerifier",
      "outputs": [],
      "stateMutability": "nonpayable",
      "type": "function"
    },
    {
      "inputs": [],
      "name": "verifier",
      "outputs": [
        {
          "internalType": "contract IPlonkVerifier",
          "name": "",
          "type": "address"
        }
      ],
      "stateMutability": "view",
      "type": "function"
    },
    {
      "inputs": [
        {
          "internalType": "uint256",
          "name": "",
          "type": "uint256"
        }
      ],
      "name": "whitelistedAssets",
      "outputs": [
        {
          "internalType": "bool",
          "name": "",
          "type": "bool"
        }
      ],
      "stateMutability": "view",
      "type": "function"
    },
    {
      "inputs": [
        {
          "internalType": "uint256",
          "name": "amount",
          "type": "uint256"
        },
        {
          "internalType": "address payable",
          "name": "recipient",
          "type": "address"
        }
      ],
      "name": "withdraw",
      "outputs": [],
      "stateMutability": "nonpayable",
      "type": "function"
    },
    {
      "stateMutability": "payable",
      "type": "receive"
    }
  ],
  "bytecode": "0x608060405234801561001057600080fd5b5060405161142438038061142483398101604081905261002f9161011b565b600080546001600160a01b0319166001600160a01b038316178155600880546001600160a81b0319163360ff60a01b1916179055600260209081527fe5c232d172908e820c4f3c99f078fc6942cf12e13902ec71ee035eeae0c46ea8805460ff1990811660019081179092556107d09093527faf45d3fc6d0ee49444ba1d626e6be6fb8bf5018c6dbcc5b6030b09677a60821e805490931681179092556040519182526107ce91600080516020611404833981519152910160405180910390a2604051600181526107d0906000805160206114048339815191529060200160405180910390a25061014b565b60006020828403121561012d57600080fd5b81516001600160a01b038116811461014457600080fd5b9392505050565b6112aa8061015a6000396000f3fe6080604052600436106101385760003560e01c80636577b86a116100ab578063d21e82ab1161006f578063d21e82ab14610443578063dfe6b5d614610473578063f2fde38b146104aa578063f8b2cb4f146104ca578063f91a7b8914610500578063ff50abdc1461056957600080fd5b80636577b86a14610362578063699b475c146103cb5780638da5cb5b146103fb57806397fc007c1461041b578063d0e30db01461043b57600080fd5b80631fde3c75116100fd5780631fde3c751461025d57806327e235e3146102a25780632b7ac3f3146102dd5780633bf47720146103155780633f90916a1461032b5780635c975abb1461034157600080fd5b8062f714ce146101bb5780630a7920c5146101dd5780630c0caf7b146101fd57806316c38b3c1461021d5780631e31552c1461023d57600080fd5b366101b657336000908152600160205260408120805434929061015c90849061106d565b925050819055503460056000828254610175919061106d565b90915550506040805134815242602082015233917f90890809c654f11d6e72a28fa60149770a0d11ec6c92319d6ceb2bb0a4ea1a15910160405180910390a2005b600080fd5b3480156101c757600080fd5b506101db6101d636600461109e565b61057f565b005b3480156101e957600080fd5b506101db6101f83660046110ce565b6107b2565b34801561020957600080fd5b506101db6102183660046110f5565b610919565b34801561022957600080fd5b506101db61023836600461111a565b61099a565b34801561024957600080fd5b506101db61025836600461113e565b610a1c565b34801561026957600080fd5b5061028d6102783660046110ce565b60026020526000908152604090205460ff1681565b60405190151581526020015b60405180910390f35b3480156102ae57600080fd5b506102cf6102bd366004611178565b60016020526000908152604090205481565b604051908152602001610299565b3480156102e957600080fd5b506000546102fd906001600160a01b031681565b6040516001600160a01b039091168152602001610299565b34801561032157600080fd5b506102cf60065481565b34801561033757600080fd5b506102cf60075481565b34801561034d57600080fd5b5060085461028d90600160a01b900460ff1681565b34801561036e57600080fd5b506103a961037d3660046110ce565b600360208190526000918252604090912080546001820154600283015492909301549092919060ff1684565b6040805194855260208501939093529183015215156060820152608001610299565b3480156103d757600080fd5b5061028d6103e63660046110ce565b60009081526002602052604090205460ff1690565b34801561040757600080fd5b506008546102fd906001600160a01b031681565b34801561042757600080fd5b506101db610436366004611178565b610e1e565b6101db610ec0565b34801561044f57600080fd5b5061028d61045e3660046110ce565b60046020526000908152604090205460ff1681565b34801561047f57600080fd5b5060055460065460075447604080519485526020850193909352918301526060820152608001610299565b3480156104b657600080fd5b506101db6104c5366004611178565b610fc1565b3480156104d657600080fd5b506102cf6104e5366004611178565b6001600160a01b031660009081526001602052604090205490565b34801561050c57600080fd5b506103a961051b3660046110ce565b6000908152600360208181526040928390208351608081018552815480825260018301549382018490526002830154958201869052919093015460ff16151560609093018390529390929190565b34801561057557600080fd5b506102cf60055481565b600854600160a01b900460ff16156105b25760405162461bcd60e51b81526004016105a990611195565b60405180910390fd5b600082116106135760405162461bcd60e51b815260206004820152602860248201527f5769746864726177616c20616d6f756e74206d75737420626520677265617465604482015267072207468616e20360c41b60648201526084016105a9565b336000908152600160205260409020548211156106695760405162461bcd60e51b8152602060048201526014602482015273496e73756666696369656e742062616c616e636560601b60448201526064016105a9565b6001600160a01b0381166106b35760405162461bcd60e51b8152602060048201526011602482015270125b9d985b1a59081c9958da5c1a595b9d607a1b60448201526064016105a9565b33600090815260016020526040812080548492906106d29084906111c1565b90915550506040516000906001600160a01b0383169084908381818185875af1925050503d8060008114610722576040519150601f19603f3d011682016040523d82523d6000602084013e610727565b606091505b505090508061076a5760405162461bcd60e51b815260206004820152600f60248201526e151c985b9cd9995c8819985a5b1959608a1b60448201526064016105a9565b604080518481524260208201526001600160a01b038416917fdf273cb619d95419a9cd0ec88123a0538c85064229baa6363788f743fff90deb910160405180910390a2505050565b600854600160a01b900460ff16156107dc5760405162461bcd60e51b81526004016105a990611195565b600081815260036020526040902080546108385760405162461bcd60e51b815260206004820152601960248201527f4e6f2070656e64696e67207472616e7366657220666f756e640000000000000060448201526064016105a9565b600381015460ff161561088d5760405162461bcd60e51b815260206004820152601860248201527f5472616e7366657220616c726561647920636c61696d6564000000000000000060448201526064016105a9565b60038101805460ff19166001179055600780549060006108ac836111d4565b9091555050805433600090815260016020526040812080549091906108d290849061106d565b9091555050805460408051918252426020830152339184917fe4a2e08b7ce0d2db91a67c857475eeddb60f1f5ebf28b41a6c0fdaec400d2662910160405180910390a35050565b6008546001600160a01b031633146109435760405162461bcd60e51b81526004016105a9906111eb565b600082815260026020908152604091829020805460ff1916841515908117909155915191825283917fd0b712da413c996b03190948c782559cf27a01fc9b15ec67783898bcaa2fff09910160405180910390a25050565b6008546001600160a01b031633146109c45760405162461bcd60e51b81526004016105a9906111eb565b60088054821515600160a01b0260ff60a01b199091161790556040517f0e2fb031ee032dc02d8011dc50b816eb450cf856abd8261680dac74f72165bd290610a1190831515815260200190565b60405180910390a150565b600854600160a01b900460ff1615610a465760405162461bcd60e51b81526004016105a990611195565b60a0810135600081815260026020908152604091829020548435939185013592850135916060860135916080870135919060c08801359060e08901359060ff16610aca5760405162461bcd60e51b8152602060048201526015602482015274105cdcd95d081b9bdd081dda1a5d195b1a5cdd1959605a1b60448201526064016105a9565b60008481526004602052604090205460ff1615610b355760405162461bcd60e51b8152602060048201526024808201527f446f75626c65207370656e643a206e756c6c696669657220616c7265616479206044820152631d5cd95960e21b60648201526084016105a9565b6000805460405163a79b30ed60e01b81526001600160a01b039091169063a79b30ed90610b68908e908e90600401611222565b602060405180830381865afa158015610b85573d6000803e3d6000fd5b505050506040513d601f19601f82011682018060405250810190610ba9919061123e565b905080610be85760405162461bcd60e51b815260206004820152600d60248201526c24b73b30b634b210383937b7b360991b60448201526064016105a9565b88600114610c385760405162461bcd60e51b815260206004820152601960248201527f436972637569742072656a6563746564207472616e736665720000000000000060448201526064016105a9565b33600090815260016020526040902054808910610c905760405162461bcd60e51b8152602060048201526016602482015275496e76616c69642062616c616e63652075706461746560501b60448201526064016105a9565b6000610c9c8a836111c1565b3360009081526001602081815260408084208f90558b845260048252808420805460ff19169093179092558b83526003905290205490915015610d125760405162461bcd60e51b815260206004820152600e60248201526d2430b9b41031b7b63634b9b4b7b760911b60448201526064016105a9565b604080516080810182528281526020808201898152428385019081526000606085018181528e8252600394859052958120945185559151600185015551600284015592519101805460ff19169115159190911790556006805491610d758361125b565b909155505060078054906000610d8a8361125b565b90915550506040805142815260018d1460208201529081018b90528690899033907f48be7be184d02dc1b81b99889bbe673aea68ad5fe8b79e49a1525367e7d985619060600160405180910390a4604051428152339088907fe7d219194ac4335eaac6d680d1e1c25b18bb6de2990c2a9c03c82ebb79759da39060200160405180910390a350505050505050505050505050565b6008546001600160a01b03163314610e485760405162461bcd60e51b81526004016105a9906111eb565b6001600160a01b038116610e9e5760405162461bcd60e51b815260206004820152601860248201527f496e76616c69642076657269666965722061646472657373000000000000000060448201526064016105a9565b600080546001600160a01b0319166001600160a01b0392909216919091179055565b600854600160a01b900460ff1615610eea5760405162461bcd60e51b81526004016105a990611195565b60003411610f485760405162461bcd60e51b815260206004820152602560248201527f4465706f73697420616d6f756e74206d75737420626520677265617465722074604482015264068616e20360dc1b60648201526084016105a9565b3360009081526001602052604081208054349290610f6790849061106d565b925050819055503460056000828254610f80919061106d565b90915550506040805134815242602082015233917f90890809c654f11d6e72a28fa60149770a0d11ec6c92319d6ceb2bb0a4ea1a15910160405180910390a2565b6008546001600160a01b03163314610feb5760405162461bcd60e51b81526004016105a9906111eb565b6001600160a01b0381166110355760405162461bcd60e51b815260206004820152601160248201527024b73b30b634b2103732bb9037bbb732b960791b60448201526064016105a9565b600880546001600160a01b0319166001600160a01b0392909216919091179055565b634e487b7160e01b600052601160045260246000fd5b8082018082111561108057611080611057565b92915050565b6001600160a01b038116811461109b57600080fd5b50565b600080604083850312156110b157600080fd5b8235915060208301356110c381611086565b809150509250929050565b6000602082840312156110e057600080fd5b5035919050565b801515811461109b57600080fd5b6000806040838503121561110857600080fd5b8235915060208301356110c3816110e7565b60006020828403121561112c57600080fd5b8135611137816110e7565b9392505050565b600080610400838503121561115257600080fd5b61030083018481111561116457600080fd5b83925084610400850111156110c357600080fd5b60006020828403121561118a57600080fd5b813561113781611086565b60208082526012908201527110dbdb9d1c9858dd081a5cc81c185d5cd95960721b604082015260600190565b8181038181111561108057611080611057565b6000816111e3576111e3611057565b506000190190565b60208082526018908201527f4f6e6c79206f776e65722063616e2063616c6c20746869730000000000000000604082015260600190565b6104008101610300848337610100836103008401379392505050565b60006020828403121561125057600080fd5b8151611137816110e7565b60006001820161126d5761126d611057565b506001019056fea264697066735822122099186dd35917b073cc4301d085dc8afd1b05b8698793ccef2c6636ee3e173e4a64736f6c634300081c0033d0b712da413c996b03190948c782559cf27a01fc9b15ec67783898bcaa2fff09",
  "linkReferences": {},
  "deployedLinkReferences": {}
}