{
  "_format": "hh-sol-artifact-1",
  "contractName": "PrivateTransferV3",
  "sourceName": "contracts/plonk/PrivateTransferV3.sol",
  "abi": [
    {
      "inputs": [
        {
          "internalType": "address",
          "name": "_verifierAddress",
          "type": "address"
        }
      ],
      "stateMutability": "nonpayable",
      "type": "constructor"
    },
    {
      "anonymous": false,
      "inputs": [
        {
          "indexed": true,
          "internalType": "uint256",
          "name": "assetId",
          "type": "uint256"
        },
        {
          "indexed": false,
          "internalType": "bool",
          "name": "status",
          "type": "bool"
        }
      ],
      "name": "AssetWhitelisted",
      "type": "event"
    },
    {
      "anonymous": false,
      "inputs": [
        {
          "indexed": true,
          "internalType": "address",
          "name": "sender",
          "type": "address"
        },
        {
          "indexed": false,
          "internalType": "uint256",
          "name": "amount",
          "type": "uint256"
        },
        {
          "indexed": false,
          "internalType": "uint256",
          "name": "timestamp",
          "type": "uint256"
        }
      ],
      "name": "Deposit",
      "type": "event"
    },
    {
      "anonymous": false,
      "inputs": [
        {
          "indexed": false,
          "internalType": "bool",
          "name": "status",
          "type": "bool"
        }
      ],
      "name": "Paused",
      "type": "event"
    },
    {
      "anonymous": false,
      "inputs": [
        {
          "indexed": true,
          "internalType": "address",
          "name": "sender",
          "type": "address"
        },
        {
          "indexed": true,
          "internalType": "uint256",
          "name": "assetId",
          "type": "uint256"
        },
        {
          "indexed": false,
          "internalType": "uint256",
          "name": "timestamp",
          "type": "uint256"
        },
        {
          "indexed": false,
          "internalType": "bool",
          "name": "valid",
          "type": "bool"
        },
        {
          "indexed": false,
          "internalType": "uint256",
          "name": "newBalance",
          "type": "uint256"
        }
      ],
      "name": "PrivateTransfer",
      "type": "event"
    },
    {
      "anonymous": false,
      "inputs": [
        {
          "indexed": true,
          "internalType": "address",
          "name": "recipient",
          "type": "address"
        },
        {
          "indexed": false,
          "internalType": "uint256",
          "name": "amount",
          "type": "uint256"
        },
        {
          "indexed": false,
          "internalType": "uint256",
          "name": "timestamp",
          "type": "uint256"
        }
      ],
      "name": "Withdrawal",
      "type": "event"
    },
    {
      "inputs": [
        {
          "internalType": "address",
          "name": "",
          "type": "address"
        }
      ],
      "name": "balances",
      "outputs": [
        {
          "internalType": "uint256",
          "name": "",
          "type": "uint256"
        }
      ],
      "stateMutability": "view",
      "type": "function"
    },
    {
      "inputs": [],
      "name": "deposit",
      "outputs": [],
      "stateMutability": "payable",
      "type": "function"
    },
    {
      "inputs": [
        {
          "internalType": "address",
          "name": "account",
          "type": "address"
        }
      ],
      "name": "getBalance",
      "outputs": [
        {
          "internalType": "uint256",
          "name": "",
          "type": "uint256"
        }
      ],
      "stateMutability": "view",
      "type": "function"
    },
    {
      "inputs": [],
      "name": "getContractStats",
      "outputs": [
        {
          "internalType": "uint256",
          "name": "_totalDeposited",
          "type": "uint256"
        },
        {
          "internalType": "uint256",
          "name": "_totalTransfers",
          "type": "uint256"
        },
        {
          "internalType": "uint256",
          "name": "_contractBalance",
          "type": "uint256"
        }
      ],
      "stateMutability": "view",
      "type": "function"
    },
    {
      "inputs": [
        {
          "internalType": "uint256",
          "name": "assetId",
          "type": "uint256"
        }
      ],
      "name": "isAssetWhitelisted",
      "outputs": [
        {
          "internalType": "bool",
          "name": "",
          "type": "bool"
        }
      ],
      "stateMutability": "view",
      "type": "function"
    },
    {
      "inputs": [],
      "name": "owner",
      "outputs": [
        {
          "internalType": "address",
          "name": "",
          "type": "address"
        }
      ],
      "stateMutability": "view",
      "type": "function"
    },
    {
      "inputs": [],
      "name": "paused",
      "outputs": [
        {
          "internalType": "bool",
          "name": "",
          "type": "bool"
        }
      ],
      "stateMutability": "view",
      "type": "function"
    },
    {
      "inputs": [
        {
          "internalType": "uint256[24]",
          "name": "proof",
          "type": "uint256[24]"
        },
        {
          "internalType": "uint256[6]",
          "name": "publicSignals",
          "type": "uint256[6]"
        }
      ],
      "name": "privateTransfer",
      "outputs": [],
      "stateMutability": "nonpayable",
      "type": "function"
    },
    {
      "inputs": [
        {
          "internalType": "uint256",
          "name": "assetId",
          "type": "uint256"
        },
        {
          "internalType": "bool",
          "name": "status",
          "type": "bool"
        }
      ],
      "name": "setAssetWhitelist",
      "outputs": [],
      "stateMutability": "nonpayable",
      "type": "function"
    },
    {
      "inputs": [
        {
          "internalType": "bool",
          "name": "_paused",
          "type": "bool"
        }
      ],
      "name": "setPaused",
      "outputs": [],
      "stateMutability": "nonpayable",
      "type": "function"
    },
    {
      "inputs": [],
      "name": "totalDeposited",
      "outputs": [
        {
          "internalType": "uint256",
          "name": "",
          "type": "uint256"
        }
      ],
      "stateMutability": "view",
      "type": "function"
    },
    {
      "inputs": [],
      "name": "totalTransfers",
      "outputs": [
        {
          "internalType": "uint256",
          "name": "",
          "type": "uint256"
        }
      ],
      "stateMutability": "view",
      "type": "function"
    },
    {
      "inputs": [
        {
          "internalType": "address",
          "name": "newOwner",
          "type": "address"
        }
      ],
      "name": "transferOwnership",
      "outputs": [],
      "stateMutability": "nonpayable",
      "type": "function"
    },
    {
      "inputs": [
        {
          "internalType": "address",
          "name": "_verifierAddress",
          "type": "address"
        }
      ],
      "name": "updateVerifier",
      "outputs": [],
      "stateMutability": "nonpayable",
      "type": "function"
    },
    {
      "inputs": [],
      "name": "verifier",
      "outputs": [
        {
          "internalType": "contract IPlonkVerifier",
          "name": "",
          "type": "address"
        }
      ],
      "stateMutability": "view",
      "type": "function"
    },
    {
      "inputs": [
        {
          "internalType": "uint256",
          "name": "",
          "type": "uint256"
        }
      ],
      "name": "whitelistedAssets",
      "outputs": [
        {
          "internalType": "bool",
          "name": "",
          "type": "bool"
        }
      ],
      "stateMutability": "view",
      "type": "function"
    },
    {
      "inputs": [
        {
          "internalType": "uint256",
          "name": "amount",
          "type": "uint256"
        },
        {
          "internalType": "address payable",
          "name": "recipient",
          "type": "address"
        }
      ],
      "name": "withdraw",
      "outputs": [],
      "stateMutability": "nonpayable",
      "type": "function"
    },
    {
      "stateMutability": "payable",
      "type": "receive"
    }
  ],
  "bytecode": "0x608060405234801561001057600080fd5b50604051610f48380380610f4883398101604081905261002f9161011b565b600080546001600160a01b0319166001600160a01b038316178155600580546001600160a81b0319163360ff60a01b1916179055600260209081527fe5c232d172908e820c4f3c99f078fc6942cf12e13902ec71ee035eeae0c46ea8805460ff1990811660019081179092556107d09093527faf45d3fc6d0ee49444ba1d626e6be6fb8bf5018c6dbcc5b6030b09677a60821e805490931681179092556040519182526107ce91600080516020610f28833981519152910160405180910390a2604051600181526107d090600080516020610f288339815191529060200160405180910390a25061014b565b60006020828403121561012d57600080fd5b81516001600160a01b038116811461014457600080fd5b9392505050565b610dce8061015a6000396000f3fe6080604052600436106101015760003560e01c8063630134fa11610095578063d0e30db011610064578063d0e30db014610365578063dfe6b5d61461036d578063f2fde38b1461039c578063f8b2cb4f146103bc578063ff50abdc146103f257600080fd5b8063630134fa146102d5578063699b475c146102f55780638da5cb5b1461032557806397fc007c1461034557600080fd5b806327e235e3116100d157806327e235e31461022b5780632b7ac3f3146102665780633bf477201461029e5780635c975abb146102b457600080fd5b8062f714ce146101845780630c0caf7b146101a657806316c38b3c146101c65780631fde3c75146101e657600080fd5b3661017f573360009081526001602052604081208054349290610125908490610ba9565b92505081905550346003600082825461013e9190610ba9565b90915550506040805134815242602082015233917f90890809c654f11d6e72a28fa60149770a0d11ec6c92319d6ceb2bb0a4ea1a15910160405180910390a2005b600080fd5b34801561019057600080fd5b506101a461019f366004610bda565b610408565b005b3480156101b257600080fd5b506101a46101c1366004610c18565b61063b565b3480156101d257600080fd5b506101a46101e1366004610c3d565b6106bc565b3480156101f257600080fd5b50610216610201366004610c61565b60026020526000908152604090205460ff1681565b60405190151581526020015b60405180910390f35b34801561023757600080fd5b50610258610246366004610c7a565b60016020526000908152604090205481565b604051908152602001610222565b34801561027257600080fd5b50600054610286906001600160a01b031681565b6040516001600160a01b039091168152602001610222565b3480156102aa57600080fd5b5061025860045481565b3480156102c057600080fd5b5060055461021690600160a01b900460ff1681565b3480156102e157600080fd5b506101a46102f0366004610c97565b61073e565b34801561030157600080fd5b50610216610310366004610c61565b60009081526002602052604090205460ff1690565b34801561033157600080fd5b50600554610286906001600160a01b031681565b34801561035157600080fd5b506101a4610360366004610c7a565b61095a565b6101a46109fc565b34801561037957600080fd5b506003546004544760408051938452602084019290925290820152606001610222565b3480156103a857600080fd5b506101a46103b7366004610c7a565b610afd565b3480156103c857600080fd5b506102586103d7366004610c7a565b6001600160a01b031660009081526001602052604090205490565b3480156103fe57600080fd5b5061025860035481565b600554600160a01b900460ff161561043b5760405162461bcd60e51b815260040161043290610cd1565b60405180910390fd5b6000821161049c5760405162461bcd60e51b815260206004820152602860248201527f5769746864726177616c20616d6f756e74206d75737420626520677265617465604482015267072207468616e20360c41b6064820152608401610432565b336000908152600160205260409020548211156104f25760405162461bcd60e51b8152602060048201526014602482015273496e73756666696369656e742062616c616e636560601b6044820152606401610432565b6001600160a01b03811661053c5760405162461bcd60e51b8152602060048201526011602482015270125b9d985b1a59081c9958da5c1a595b9d607a1b6044820152606401610432565b336000908152600160205260408120805484929061055b908490610cfd565b90915550506040516000906001600160a01b0383169084908381818185875af1925050503d80600081146105ab576040519150601f19603f3d011682016040523d82523d6000602084013e6105b0565b606091505b50509050806105f35760405162461bcd60e51b815260206004820152600f60248201526e151c985b9cd9995c8819985a5b1959608a1b6044820152606401610432565b604080518481524260208201526001600160a01b038416917fdf273cb619d95419a9cd0ec88123a0538c85064229baa6363788f743fff90deb910160405180910390a2505050565b6005546001600160a01b031633146106655760405162461bcd60e51b815260040161043290610d10565b600082815260026020908152604091829020805460ff1916841515908117909155915191825283917fd0b712da413c996b03190948c782559cf27a01fc9b15ec67783898bcaa2fff09910160405180910390a25050565b6005546001600160a01b031633146106e65760405162461bcd60e51b815260040161043290610d10565b60058054821515600160a01b0260ff60a01b199091161790556040517f0e2fb031ee032dc02d8011dc50b816eb450cf856abd8261680dac74f72165bd29061073390831515815260200190565b60405180910390a150565b600554600160a01b900460ff16156107685760405162461bcd60e51b815260040161043290610cd1565b6060810135600081815260026020908152604091829020548435939185013592850135919060808601359060a08701359060ff166107e05760405162461bcd60e51b8152602060048201526015602482015274105cdcd95d081b9bdd081dda1a5d195b1a5cdd1959605a1b6044820152606401610432565b6000805460405163268c5f1360e21b81526001600160a01b0390911690639a317c4c90610813908c908c90600401610d47565b602060405180830381865afa158015610830573d6000803e3d6000fd5b505050506040513d601f19601f820116820180604052508101906108549190610d62565b9050806108935760405162461bcd60e51b815260206004820152600d60248201526c24b73b30b634b210383937b7b360991b6044820152606401610432565b866001146108e35760405162461bcd60e51b815260206004820152601960248201527f436972637569742072656a6563746564207472616e73666572000000000000006044820152606401610432565b336000908152600160205260408120879055600480549161090383610d7f565b909155505060408051428152600189146020820152908101879052849033907fab919ccd290a898c0328f83f490515ef460aab6679dd0ece2eecc6f4f0c0bfec9060600160405180910390a3505050505050505050565b6005546001600160a01b031633146109845760405162461bcd60e51b815260040161043290610d10565b6001600160a01b0381166109da5760405162461bcd60e51b815260206004820152601860248201527f496e76616c6964207665726966696572206164647265737300000000000000006044820152606401610432565b600080546001600160a01b0319166001600160a01b0392909216919091179055565b600554600160a01b900460ff1615610a265760405162461bcd60e51b815260040161043290610cd1565b60003411610a845760405162461bcd60e51b815260206004820152602560248201527f4465706f73697420616d6f756e74206d75737420626520677265617465722074604482015264068616e20360dc1b6064820152608401610432565b3360009081526001602052604081208054349290610aa3908490610ba9565b925050819055503460036000828254610abc9190610ba9565b90915550506040805134815242602082015233917f90890809c654f11d6e72a28fa60149770a0d11ec6c92319d6ceb2bb0a4ea1a15910160405180910390a2565b6005546001600160a01b03163314610b275760405162461bcd60e51b815260040161043290610d10565b6001600160a01b038116610b715760405162461bcd60e51b815260206004820152601160248201527024b73b30b634b2103732bb9037bbb732b960791b6044820152606401610432565b600580546001600160a01b0319166001600160a01b0392909216919091179055565b634e487b7160e01b600052601160045260246000fd5b80820180821115610bbc57610bbc610b93565b92915050565b6001600160a01b0381168114610bd757600080fd5b50565b60008060408385031215610bed57600080fd5b823591506020830135610bff81610bc2565b809150509250929050565b8015158114610bd757600080fd5b60008060408385031215610c2b57600080fd5b823591506020830135610bff81610c0a565b600060208284031215610c4f57600080fd5b8135610c5a81610c0a565b9392505050565b600060208284031215610c7357600080fd5b5035919050565b600060208284031215610c8c57600080fd5b8135610c5a81610bc2565b6000806103c08385031215610cab57600080fd5b610300830184811115610cbd57600080fd5b839250846103c085011115610bff57600080fd5b60208082526012908201527110dbdb9d1c9858dd081a5cc81c185d5cd95960721b604082015260600190565b81810381811115610bbc57610bbc610b93565b60208082526018908201527f4f6e6c79206f776e65722063616e2063616c6c20746869730000000000000000604082015260600190565b6103c0810161030084833760c0836103008401379392505050565b600060208284031215610d7457600080fd5b8151610c5a81610c0a565b600060018201610d9157610d91610b93565b506001019056fea2646970667358221220cfb4f9d739d22de628fe84cb9a10311725e40a5fb4e121514bb9bb83d41ba8d064736f6c634300081c0033d0b712da413c996b03190948c782559cf27a01fc9b15ec67783898bcaa2fff09",
  "linkReferences": {},
  "deployedLinkReferences": {}
}